{
	"data": {
		"bytecode": {
			"linkReferences": {},
			"object": "6080604052601060005534801561001557600080fd5b50610e66806100256000396000f3fe608060405234801561001057600080fd5b50600436106100575760003560e01c8063655827e31461005c57806372380aea146100785780639baabf55146100a8578063adb4954e146100d8578063ae44a10514610108575b600080fd5b61007660048036038101906100719190610559565b610124565b005b610092600480360381019061008d91906105e4565b610208565b60405161009f91906106cf565b60405180910390f35b6100c260048036038101906100bd9190610559565b6103aa565b6040516100cf9190610700565b60405180910390f35b6100f260048036038101906100ed91906105e4565b6103dd565b6040516100ff919061072a565b60405180910390f35b610122600480360381019061011d919061088b565b6103f5565b005b336002600083815260200190815260200160002060006101000a81548173ffffffffffffffffffffffffffffffffffffffff021916908373ffffffffffffffffffffffffffffffffffffffff1602179055506001600360003373ffffffffffffffffffffffffffffffffffffffff1673ffffffffffffffffffffffffffffffffffffffff168152602001908152602001600020546101c29190610903565b600360003373ffffffffffffffffffffffffffffffffffffffff1673ffffffffffffffffffffffffffffffffffffffff1681526020019081526020016000208190555050565b6060600080600360008573ffffffffffffffffffffffffffffffffffffffff1673ffffffffffffffffffffffffffffffffffffffff1681526020019081526020016000205467ffffffffffffffff81111561026657610265610760565b5b6040519080825280602002602001820160405280156102945781602001602082028036833780820191505090505b50905060005b60018054905081101561039f576000600182815481106102bd576102bc610937565b5b90600052602060002090600202016001015490508573ffffffffffffffffffffffffffffffffffffffff166002600083815260200190815260200160002060009054906101000a900473ffffffffffffffffffffffffffffffffffffffff1673ffffffffffffffffffffffffffffffffffffffff160361038b576001828154811061034b5761034a610937565b5b9060005260206000209060020201600101548385815181106103705761036f610937565b5b602002602001018181525050838061038790610966565b9450505b50808061039790610966565b91505061029a565b508092505050919050565b60026020528060005260406000206000915054906101000a900473ffffffffffffffffffffffffffffffffffffffff1681565b60036020528060005260406000206000915090505481565b600061040082610410565b905061040c828261045e565b5050565b600080600054600a1890506000818460405160200161042f9190610a1f565b6040516020818303038152906040528051906020012060001c6104529190610a65565b90508092505050919050565b6001604051806040016040528084815260200183815250908060018154018082558091505060019003906000526020600020906002020160009091909190915060008201518160000190816104b39190610ca2565b506020820151816001015550507f0638820bbfa7f1ab0bfb9054649b6198da60bd10654cbfe5c50d26b1bec65878600180805490506104f29190610d74565b838360405161050393929190610df2565b60405180910390a15050565b6000604051905090565b600080fd5b600080fd5b6000819050919050565b61053681610523565b811461054157600080fd5b50565b6000813590506105538161052d565b92915050565b60006020828403121561056f5761056e610519565b5b600061057d84828501610544565b91505092915050565b600073ffffffffffffffffffffffffffffffffffffffff82169050919050565b60006105b182610586565b9050919050565b6105c1816105a6565b81146105cc57600080fd5b50565b6000813590506105de816105b8565b92915050565b6000602082840312156105fa576105f9610519565b5b6000610608848285016105cf565b91505092915050565b600081519050919050565b600082825260208201905092915050565b6000819050602082019050919050565b61064681610523565b82525050565b6000610658838361063d565b60208301905092915050565b6000602082019050919050565b600061067c82610611565b610686818561061c565b93506106918361062d565b8060005b838110156106c25781516106a9888261064c565b97506106b483610664565b925050600181019050610695565b5085935050505092915050565b600060208201905081810360008301526106e98184610671565b905092915050565b6106fa816105a6565b82525050565b600060208201905061071560008301846106f1565b92915050565b61072481610523565b82525050565b600060208201905061073f600083018461071b565b92915050565b600080fd5b600080fd5b6000601f19601f8301169050919050565b7f4e487b7100000000000000000000000000000000000000000000000000000000600052604160045260246000fd5b6107988261074f565b810181811067ffffffffffffffff821117156107b7576107b6610760565b5b80604052505050565b60006107ca61050f565b90506107d6828261078f565b919050565b600067ffffffffffffffff8211156107f6576107f5610760565b5b6107ff8261074f565b9050602081019050919050565b82818337600083830152505050565b600061082e610829846107db565b6107c0565b90508281526020810184848401111561084a5761084961074a565b5b61085584828561080c565b509392505050565b600082601f83011261087257610871610745565b5b813561088284826020860161081b565b91505092915050565b6000602082840312156108a1576108a0610519565b5b600082013567ffffffffffffffff8111156108bf576108be61051e565b5b6108cb8482850161085d565b91505092915050565b7f4e487b7100000000000000000000000000000000000000000000000000000000600052601160045260246000fd5b600061090e82610523565b915061091983610523565b9250828201905080821115610931576109306108d4565b5b92915050565b7f4e487b7100000000000000000000000000000000000000000000000000000000600052603260045260246000fd5b600061097182610523565b91507fffffffffffffffffffffffffffffffffffffffffffffffffffffffffffffffff82036109a3576109a26108d4565b5b600182019050919050565b600081519050919050565b600081905092915050565b60005b838110156109e25780820151818401526020810190506109c7565b60008484015250505050565b60006109f9826109ae565b610a0381856109b9565b9350610a138185602086016109c4565b80840191505092915050565b6000610a2b82846109ee565b915081905092915050565b7f4e487b7100000000000000000000000000000000000000000000000000000000600052601260045260246000fd5b6000610a7082610523565b9150610a7b83610523565b925082610a8b57610a8a610a36565b5b828206905092915050565b7f4e487b7100000000000000000000000000000000000000000000000000000000600052602260045260246000fd5b60006002820490506001821680610add57607f821691505b602082108103610af057610aef610a96565b5b50919050565b60008190508160005260206000209050919050565b60006020601f8301049050919050565b600082821b905092915050565b600060088302610b587fffffffffffffffffffffffffffffffffffffffffffffffffffffffffffffffff82610b1b565b610b628683610b1b565b95508019841693508086168417925050509392505050565b6000819050919050565b6000610b9f610b9a610b9584610523565b610b7a565b610523565b9050919050565b6000819050919050565b610bb983610b84565b610bcd610bc582610ba6565b848454610b28565b825550505050565b600090565b610be2610bd5565b610bed818484610bb0565b505050565b5b81811015610c1157610c06600082610bda565b600181019050610bf3565b5050565b601f821115610c5657610c2781610af6565b610c3084610b0b565b81016020851015610c3f578190505b610c53610c4b85610b0b565b830182610bf2565b50505b505050565b600082821c905092915050565b6000610c7960001984600802610c5b565b1980831691505092915050565b6000610c928383610c68565b9150826002028217905092915050565b610cab826109ae565b67ffffffffffffffff811115610cc457610cc3610760565b5b610cce8254610ac5565b610cd9828285610c15565b600060209050601f831160018114610d0c5760008415610cfa578287015190505b610d048582610c86565b865550610d6c565b601f198416610d1a86610af6565b60005b82811015610d4257848901518255600182019150602085019450602081019050610d1d565b86831015610d5f5784890151610d5b601f891682610c68565b8355505b6001600288020188555050505b505050505050565b6000610d7f82610523565b9150610d8a83610523565b9250828203905081811115610da257610da16108d4565b5b92915050565b600082825260208201905092915050565b6000610dc4826109ae565b610dce8185610da8565b9350610dde8185602086016109c4565b610de78161074f565b840191505092915050565b6000606082019050610e07600083018661071b565b8181036020830152610e198185610db9565b9050610e28604083018461071b565b94935050505056fea26469706673582212201156597fc42f61c7349ac068705a61405db686d0339ece84e8fe67100057daa164736f6c63430008120033",
			"opcodes": "PUSH1 0x80 PUSH1 0x40 MSTORE PUSH1 0x10 PUSH1 0x0 SSTORE CALLVALUE DUP1 ISZERO PUSH2 0x15 JUMPI PUSH1 0x0 DUP1 REVERT JUMPDEST POP PUSH2 0xE66 DUP1 PUSH2 0x25 PUSH1 0x0 CODECOPY PUSH1 0x0 RETURN INVALID PUSH1 0x80 PUSH1 0x40 MSTORE CALLVALUE DUP1 ISZERO PUSH2 0x10 JUMPI PUSH1 0x0 DUP1 REVERT JUMPDEST POP PUSH1 0x4 CALLDATASIZE LT PUSH2 0x57 JUMPI PUSH1 0x0 CALLDATALOAD PUSH1 0xE0 SHR DUP1 PUSH4 0x655827E3 EQ PUSH2 0x5C JUMPI DUP1 PUSH4 0x72380AEA EQ PUSH2 0x78 JUMPI DUP1 PUSH4 0x9BAABF55 EQ PUSH2 0xA8 JUMPI DUP1 PUSH4 0xADB4954E EQ PUSH2 0xD8 JUMPI DUP1 PUSH4 0xAE44A105 EQ PUSH2 0x108 JUMPI JUMPDEST PUSH1 0x0 DUP1 REVERT JUMPDEST PUSH2 0x76 PUSH1 0x4 DUP1 CALLDATASIZE SUB DUP2 ADD SWAP1 PUSH2 0x71 SWAP2 SWAP1 PUSH2 0x559 JUMP JUMPDEST PUSH2 0x124 JUMP JUMPDEST STOP JUMPDEST PUSH2 0x92 PUSH1 0x4 DUP1 CALLDATASIZE SUB DUP2 ADD SWAP1 PUSH2 0x8D SWAP2 SWAP1 PUSH2 0x5E4 JUMP JUMPDEST PUSH2 0x208 JUMP JUMPDEST PUSH1 0x40 MLOAD PUSH2 0x9F SWAP2 SWAP1 PUSH2 0x6CF JUMP JUMPDEST PUSH1 0x40 MLOAD DUP1 SWAP2 SUB SWAP1 RETURN JUMPDEST PUSH2 0xC2 PUSH1 0x4 DUP1 CALLDATASIZE SUB DUP2 ADD SWAP1 PUSH2 0xBD SWAP2 SWAP1 PUSH2 0x559 JUMP JUMPDEST PUSH2 0x3AA JUMP JUMPDEST PUSH1 0x40 MLOAD PUSH2 0xCF SWAP2 SWAP1 PUSH2 0x700 JUMP JUMPDEST PUSH1 0x40 MLOAD DUP1 SWAP2 SUB SWAP1 RETURN JUMPDEST PUSH2 0xF2 PUSH1 0x4 DUP1 CALLDATASIZE SUB DUP2 ADD SWAP1 PUSH2 0xED SWAP2 SWAP1 PUSH2 0x5E4 JUMP JUMPDEST PUSH2 0x3DD JUMP JUMPDEST PUSH1 0x40 MLOAD PUSH2 0xFF SWAP2 SWAP1 PUSH2 0x72A JUMP JUMPDEST PUSH1 0x40 MLOAD DUP1 SWAP2 SUB SWAP1 RETURN JUMPDEST PUSH2 0x122 PUSH1 0x4 DUP1 CALLDATASIZE SUB DUP2 ADD SWAP1 PUSH2 0x11D SWAP2 SWAP1 PUSH2 0x88B JUMP JUMPDEST PUSH2 0x3F5 JUMP JUMPDEST STOP JUMPDEST CALLER PUSH1 0x2 PUSH1 0x0 DUP4 DUP2 MSTORE PUSH1 0x20 ADD SWAP1 DUP2 MSTORE PUSH1 0x20 ADD PUSH1 0x0 KECCAK256 PUSH1 0x0 PUSH2 0x100 EXP DUP2 SLOAD DUP2 PUSH20 0xFFFFFFFFFFFFFFFFFFFFFFFFFFFFFFFFFFFFFFFF MUL NOT AND SWAP1 DUP4 PUSH20 0xFFFFFFFFFFFFFFFFFFFFFFFFFFFFFFFFFFFFFFFF AND MUL OR SWAP1 SSTORE POP PUSH1 0x1 PUSH1 0x3 PUSH1 0x0 CALLER PUSH20 0xFFFFFFFFFFFFFFFFFFFFFFFFFFFFFFFFFFFFFFFF AND PUSH20 0xFFFFFFFFFFFFFFFFFFFFFFFFFFFFFFFFFFFFFFFF AND DUP2 MSTORE PUSH1 0x20 ADD SWAP1 DUP2 MSTORE PUSH1 0x20 ADD PUSH1 0x0 KECCAK256 SLOAD PUSH2 0x1C2 SWAP2 SWAP1 PUSH2 0x903 JUMP JUMPDEST PUSH1 0x3 PUSH1 0x0 CALLER PUSH20 0xFFFFFFFFFFFFFFFFFFFFFFFFFFFFFFFFFFFFFFFF AND PUSH20 0xFFFFFFFFFFFFFFFFFFFFFFFFFFFFFFFFFFFFFFFF AND DUP2 MSTORE PUSH1 0x20 ADD SWAP1 DUP2 MSTORE PUSH1 0x20 ADD PUSH1 0x0 KECCAK256 DUP2 SWAP1 SSTORE POP POP JUMP JUMPDEST PUSH1 0x60 PUSH1 0x0 DUP1 PUSH1 0x3 PUSH1 0x0 DUP6 PUSH20 0xFFFFFFFFFFFFFFFFFFFFFFFFFFFFFFFFFFFFFFFF AND PUSH20 0xFFFFFFFFFFFFFFFFFFFFFFFFFFFFFFFFFFFFFFFF AND DUP2 MSTORE PUSH1 0x20 ADD SWAP1 DUP2 MSTORE PUSH1 0x20 ADD PUSH1 0x0 KECCAK256 SLOAD PUSH8 0xFFFFFFFFFFFFFFFF DUP2 GT ISZERO PUSH2 0x266 JUMPI PUSH2 0x265 PUSH2 0x760 JUMP JUMPDEST JUMPDEST PUSH1 0x40 MLOAD SWAP1 DUP1 DUP3 MSTORE DUP1 PUSH1 0x20 MUL PUSH1 0x20 ADD DUP3 ADD PUSH1 0x40 MSTORE DUP1 ISZERO PUSH2 0x294 JUMPI DUP2 PUSH1 0x20 ADD PUSH1 0x20 DUP3 MUL DUP1 CALLDATASIZE DUP4 CALLDATACOPY DUP1 DUP3 ADD SWAP2 POP POP SWAP1 POP JUMPDEST POP SWAP1 POP PUSH1 0x0 JUMPDEST PUSH1 0x1 DUP1 SLOAD SWAP1 POP DUP2 LT ISZERO PUSH2 0x39F JUMPI PUSH1 0x0 PUSH1 0x1 DUP3 DUP2 SLOAD DUP2 LT PUSH2 0x2BD JUMPI PUSH2 0x2BC PUSH2 0x937 JUMP JUMPDEST JUMPDEST SWAP1 PUSH1 0x0 MSTORE PUSH1 0x20 PUSH1 0x0 KECCAK256 SWAP1 PUSH1 0x2 MUL ADD PUSH1 0x1 ADD SLOAD SWAP1 POP DUP6 PUSH20 0xFFFFFFFFFFFFFFFFFFFFFFFFFFFFFFFFFFFFFFFF AND PUSH1 0x2 PUSH1 0x0 DUP4 DUP2 MSTORE PUSH1 0x20 ADD SWAP1 DUP2 MSTORE PUSH1 0x20 ADD PUSH1 0x0 KECCAK256 PUSH1 0x0 SWAP1 SLOAD SWAP1 PUSH2 0x100 EXP SWAP1 DIV PUSH20 0xFFFFFFFFFFFFFFFFFFFFFFFFFFFFFFFFFFFFFFFF AND PUSH20 0xFFFFFFFFFFFFFFFFFFFFFFFFFFFFFFFFFFFFFFFF AND SUB PUSH2 0x38B JUMPI PUSH1 0x1 DUP3 DUP2 SLOAD DUP2 LT PUSH2 0x34B JUMPI PUSH2 0x34A PUSH2 0x937 JUMP JUMPDEST JUMPDEST SWAP1 PUSH1 0x0 MSTORE PUSH1 0x20 PUSH1 0x0 KECCAK256 SWAP1 PUSH1 0x2 MUL ADD PUSH1 0x1 ADD SLOAD DUP4 DUP6 DUP2 MLOAD DUP2 LT PUSH2 0x370 JUMPI PUSH2 0x36F PUSH2 0x937 JUMP JUMPDEST JUMPDEST PUSH1 0x20 MUL PUSH1 0x20 ADD ADD DUP2 DUP2 MSTORE POP POP DUP4 DUP1 PUSH2 0x387 SWAP1 PUSH2 0x966 JUMP JUMPDEST SWAP5 POP POP JUMPDEST POP DUP1 DUP1 PUSH2 0x397 SWAP1 PUSH2 0x966 JUMP JUMPDEST SWAP2 POP POP PUSH2 0x29A JUMP JUMPDEST POP DUP1 SWAP3 POP POP POP SWAP2 SWAP1 POP JUMP JUMPDEST PUSH1 0x2 PUSH1 0x20 MSTORE DUP1 PUSH1 0x0 MSTORE PUSH1 0x40 PUSH1 0x0 KECCAK256 PUSH1 0x0 SWAP2 POP SLOAD SWAP1 PUSH2 0x100 EXP SWAP1 DIV PUSH20 0xFFFFFFFFFFFFFFFFFFFFFFFFFFFFFFFFFFFFFFFF AND DUP2 JUMP JUMPDEST PUSH1 0x3 PUSH1 0x20 MSTORE DUP1 PUSH1 0x0 MSTORE PUSH1 0x40 PUSH1 0x0 KECCAK256 PUSH1 0x0 SWAP2 POP SWAP1 POP SLOAD DUP2 JUMP JUMPDEST PUSH1 0x0 PUSH2 0x400 DUP3 PUSH2 0x410 JUMP JUMPDEST SWAP1 POP PUSH2 0x40C DUP3 DUP3 PUSH2 0x45E JUMP JUMPDEST POP POP JUMP JUMPDEST PUSH1 0x0 DUP1 PUSH1 0x0 SLOAD PUSH1 0xA XOR SWAP1 POP PUSH1 0x0 DUP2 DUP5 PUSH1 0x40 MLOAD PUSH1 0x20 ADD PUSH2 0x42F SWAP2 SWAP1 PUSH2 0xA1F JUMP JUMPDEST PUSH1 0x40 MLOAD PUSH1 0x20 DUP2 DUP4 SUB SUB DUP2 MSTORE SWAP1 PUSH1 0x40 MSTORE DUP1 MLOAD SWAP1 PUSH1 0x20 ADD KECCAK256 PUSH1 0x0 SHR PUSH2 0x452 SWAP2 SWAP1 PUSH2 0xA65 JUMP JUMPDEST SWAP1 POP DUP1 SWAP3 POP POP POP SWAP2 SWAP1 POP JUMP JUMPDEST PUSH1 0x1 PUSH1 0x40 MLOAD DUP1 PUSH1 0x40 ADD PUSH1 0x40 MSTORE DUP1 DUP5 DUP2 MSTORE PUSH1 0x20 ADD DUP4 DUP2 MSTORE POP SWAP1 DUP1 PUSH1 0x1 DUP2 SLOAD ADD DUP1 DUP3 SSTORE DUP1 SWAP2 POP POP PUSH1 0x1 SWAP1 SUB SWAP1 PUSH1 0x0 MSTORE PUSH1 0x20 PUSH1 0x0 KECCAK256 SWAP1 PUSH1 0x2 MUL ADD PUSH1 0x0 SWAP1 SWAP2 SWAP1 SWAP2 SWAP1 SWAP2 POP PUSH1 0x0 DUP3 ADD MLOAD DUP2 PUSH1 0x0 ADD SWAP1 DUP2 PUSH2 0x4B3 SWAP2 SWAP1 PUSH2 0xCA2 JUMP JUMPDEST POP PUSH1 0x20 DUP3 ADD MLOAD DUP2 PUSH1 0x1 ADD SSTORE POP POP PUSH32 0x638820BBFA7F1AB0BFB9054649B6198DA60BD10654CBFE5C50D26B1BEC65878 PUSH1 0x1 DUP1 DUP1 SLOAD SWAP1 POP PUSH2 0x4F2 SWAP2 SWAP1 PUSH2 0xD74 JUMP JUMPDEST DUP4 DUP4 PUSH1 0x40 MLOAD PUSH2 0x503 SWAP4 SWAP3 SWAP2 SWAP1 PUSH2 0xDF2 JUMP JUMPDEST PUSH1 0x40 MLOAD DUP1 SWAP2 SUB SWAP1 LOG1 POP POP JUMP JUMPDEST PUSH1 0x0 PUSH1 0x40 MLOAD SWAP1 POP SWAP1 JUMP JUMPDEST PUSH1 0x0 DUP1 REVERT JUMPDEST PUSH1 0x0 DUP1 REVERT JUMPDEST PUSH1 0x0 DUP2 SWAP1 POP SWAP2 SWAP1 POP JUMP JUMPDEST PUSH2 0x536 DUP2 PUSH2 0x523 JUMP JUMPDEST DUP2 EQ PUSH2 0x541 JUMPI PUSH1 0x0 DUP1 REVERT JUMPDEST POP JUMP JUMPDEST PUSH1 0x0 DUP2 CALLDATALOAD SWAP1 POP PUSH2 0x553 DUP2 PUSH2 0x52D JUMP JUMPDEST SWAP3 SWAP2 POP POP JUMP JUMPDEST PUSH1 0x0 PUSH1 0x20 DUP3 DUP5 SUB SLT ISZERO PUSH2 0x56F JUMPI PUSH2 0x56E PUSH2 0x519 JUMP JUMPDEST JUMPDEST PUSH1 0x0 PUSH2 0x57D DUP5 DUP3 DUP6 ADD PUSH2 0x544 JUMP JUMPDEST SWAP2 POP POP SWAP3 SWAP2 POP POP JUMP JUMPDEST PUSH1 0x0 PUSH20 0xFFFFFFFFFFFFFFFFFFFFFFFFFFFFFFFFFFFFFFFF DUP3 AND SWAP1 POP SWAP2 SWAP1 POP JUMP JUMPDEST PUSH1 0x0 PUSH2 0x5B1 DUP3 PUSH2 0x586 JUMP JUMPDEST SWAP1 POP SWAP2 SWAP1 POP JUMP JUMPDEST PUSH2 0x5C1 DUP2 PUSH2 0x5A6 JUMP JUMPDEST DUP2 EQ PUSH2 0x5CC JUMPI PUSH1 0x0 DUP1 REVERT JUMPDEST POP JUMP JUMPDEST PUSH1 0x0 DUP2 CALLDATALOAD SWAP1 POP PUSH2 0x5DE DUP2 PUSH2 0x5B8 JUMP JUMPDEST SWAP3 SWAP2 POP POP JUMP JUMPDEST PUSH1 0x0 PUSH1 0x20 DUP3 DUP5 SUB SLT ISZERO PUSH2 0x5FA JUMPI PUSH2 0x5F9 PUSH2 0x519 JUMP JUMPDEST JUMPDEST PUSH1 0x0 PUSH2 0x608 DUP5 DUP3 DUP6 ADD PUSH2 0x5CF JUMP JUMPDEST SWAP2 POP POP SWAP3 SWAP2 POP POP JUMP JUMPDEST PUSH1 0x0 DUP2 MLOAD SWAP1 POP SWAP2 SWAP1 POP JUMP JUMPDEST PUSH1 0x0 DUP3 DUP3 MSTORE PUSH1 0x20 DUP3 ADD SWAP1 POP SWAP3 SWAP2 POP POP JUMP JUMPDEST PUSH1 0x0 DUP2 SWAP1 POP PUSH1 0x20 DUP3 ADD SWAP1 POP SWAP2 SWAP1 POP JUMP JUMPDEST PUSH2 0x646 DUP2 PUSH2 0x523 JUMP JUMPDEST DUP3 MSTORE POP POP JUMP JUMPDEST PUSH1 0x0 PUSH2 0x658 DUP4 DUP4 PUSH2 0x63D JUMP JUMPDEST PUSH1 0x20 DUP4 ADD SWAP1 POP SWAP3 SWAP2 POP POP JUMP JUMPDEST PUSH1 0x0 PUSH1 0x20 DUP3 ADD SWAP1 POP SWAP2 SWAP1 POP JUMP JUMPDEST PUSH1 0x0 PUSH2 0x67C DUP3 PUSH2 0x611 JUMP JUMPDEST PUSH2 0x686 DUP2 DUP6 PUSH2 0x61C JUMP JUMPDEST SWAP4 POP PUSH2 0x691 DUP4 PUSH2 0x62D JUMP JUMPDEST DUP1 PUSH1 0x0 JUMPDEST DUP4 DUP2 LT ISZERO PUSH2 0x6C2 JUMPI DUP2 MLOAD PUSH2 0x6A9 DUP9 DUP3 PUSH2 0x64C JUMP JUMPDEST SWAP8 POP PUSH2 0x6B4 DUP4 PUSH2 0x664 JUMP JUMPDEST SWAP3 POP POP PUSH1 0x1 DUP2 ADD SWAP1 POP PUSH2 0x695 JUMP JUMPDEST POP DUP6 SWAP4 POP POP POP POP SWAP3 SWAP2 POP POP JUMP JUMPDEST PUSH1 0x0 PUSH1 0x20 DUP3 ADD SWAP1 POP DUP2 DUP2 SUB PUSH1 0x0 DUP4 ADD MSTORE PUSH2 0x6E9 DUP2 DUP5 PUSH2 0x671 JUMP JUMPDEST SWAP1 POP SWAP3 SWAP2 POP POP JUMP JUMPDEST PUSH2 0x6FA DUP2 PUSH2 0x5A6 JUMP JUMPDEST DUP3 MSTORE POP POP JUMP JUMPDEST PUSH1 0x0 PUSH1 0x20 DUP3 ADD SWAP1 POP PUSH2 0x715 PUSH1 0x0 DUP4 ADD DUP5 PUSH2 0x6F1 JUMP JUMPDEST SWAP3 SWAP2 POP POP JUMP JUMPDEST PUSH2 0x724 DUP2 PUSH2 0x523 JUMP JUMPDEST DUP3 MSTORE POP POP JUMP JUMPDEST PUSH1 0x0 PUSH1 0x20 DUP3 ADD SWAP1 POP PUSH2 0x73F PUSH1 0x0 DUP4 ADD DUP5 PUSH2 0x71B JUMP JUMPDEST SWAP3 SWAP2 POP POP JUMP JUMPDEST PUSH1 0x0 DUP1 REVERT JUMPDEST PUSH1 0x0 DUP1 REVERT JUMPDEST PUSH1 0x0 PUSH1 0x1F NOT PUSH1 0x1F DUP4 ADD AND SWAP1 POP SWAP2 SWAP1 POP JUMP JUMPDEST PUSH32 0x4E487B7100000000000000000000000000000000000000000000000000000000 PUSH1 0x0 MSTORE PUSH1 0x41 PUSH1 0x4 MSTORE PUSH1 0x24 PUSH1 0x0 REVERT JUMPDEST PUSH2 0x798 DUP3 PUSH2 0x74F JUMP JUMPDEST DUP2 ADD DUP2 DUP2 LT PUSH8 0xFFFFFFFFFFFFFFFF DUP3 GT OR ISZERO PUSH2 0x7B7 JUMPI PUSH2 0x7B6 PUSH2 0x760 JUMP JUMPDEST JUMPDEST DUP1 PUSH1 0x40 MSTORE POP POP POP JUMP JUMPDEST PUSH1 0x0 PUSH2 0x7CA PUSH2 0x50F JUMP JUMPDEST SWAP1 POP PUSH2 0x7D6 DUP3 DUP3 PUSH2 0x78F JUMP JUMPDEST SWAP2 SWAP1 POP JUMP JUMPDEST PUSH1 0x0 PUSH8 0xFFFFFFFFFFFFFFFF DUP3 GT ISZERO PUSH2 0x7F6 JUMPI PUSH2 0x7F5 PUSH2 0x760 JUMP JUMPDEST JUMPDEST PUSH2 0x7FF DUP3 PUSH2 0x74F JUMP JUMPDEST SWAP1 POP PUSH1 0x20 DUP2 ADD SWAP1 POP SWAP2 SWAP1 POP JUMP JUMPDEST DUP3 DUP2 DUP4 CALLDATACOPY PUSH1 0x0 DUP4 DUP4 ADD MSTORE POP POP POP JUMP JUMPDEST PUSH1 0x0 PUSH2 0x82E PUSH2 0x829 DUP5 PUSH2 0x7DB JUMP JUMPDEST PUSH2 0x7C0 JUMP JUMPDEST SWAP1 POP DUP3 DUP2 MSTORE PUSH1 0x20 DUP2 ADD DUP5 DUP5 DUP5 ADD GT ISZERO PUSH2 0x84A JUMPI PUSH2 0x849 PUSH2 0x74A JUMP JUMPDEST JUMPDEST PUSH2 0x855 DUP5 DUP3 DUP6 PUSH2 0x80C JUMP JUMPDEST POP SWAP4 SWAP3 POP POP POP JUMP JUMPDEST PUSH1 0x0 DUP3 PUSH1 0x1F DUP4 ADD SLT PUSH2 0x872 JUMPI PUSH2 0x871 PUSH2 0x745 JUMP JUMPDEST JUMPDEST DUP2 CALLDATALOAD PUSH2 0x882 DUP5 DUP3 PUSH1 0x20 DUP7 ADD PUSH2 0x81B JUMP JUMPDEST SWAP2 POP POP SWAP3 SWAP2 POP POP JUMP JUMPDEST PUSH1 0x0 PUSH1 0x20 DUP3 DUP5 SUB SLT ISZERO PUSH2 0x8A1 JUMPI PUSH2 0x8A0 PUSH2 0x519 JUMP JUMPDEST JUMPDEST PUSH1 0x0 DUP3 ADD CALLDATALOAD PUSH8 0xFFFFFFFFFFFFFFFF DUP2 GT ISZERO PUSH2 0x8BF JUMPI PUSH2 0x8BE PUSH2 0x51E JUMP JUMPDEST JUMPDEST PUSH2 0x8CB DUP5 DUP3 DUP6 ADD PUSH2 0x85D JUMP JUMPDEST SWAP2 POP POP SWAP3 SWAP2 POP POP JUMP JUMPDEST PUSH32 0x4E487B7100000000000000000000000000000000000000000000000000000000 PUSH1 0x0 MSTORE PUSH1 0x11 PUSH1 0x4 MSTORE PUSH1 0x24 PUSH1 0x0 REVERT JUMPDEST PUSH1 0x0 PUSH2 0x90E DUP3 PUSH2 0x523 JUMP JUMPDEST SWAP2 POP PUSH2 0x919 DUP4 PUSH2 0x523 JUMP JUMPDEST SWAP3 POP DUP3 DUP3 ADD SWAP1 POP DUP1 DUP3 GT ISZERO PUSH2 0x931 JUMPI PUSH2 0x930 PUSH2 0x8D4 JUMP JUMPDEST JUMPDEST SWAP3 SWAP2 POP POP JUMP JUMPDEST PUSH32 0x4E487B7100000000000000000000000000000000000000000000000000000000 PUSH1 0x0 MSTORE PUSH1 0x32 PUSH1 0x4 MSTORE PUSH1 0x24 PUSH1 0x0 REVERT JUMPDEST PUSH1 0x0 PUSH2 0x971 DUP3 PUSH2 0x523 JUMP JUMPDEST SWAP2 POP PUSH32 0xFFFFFFFFFFFFFFFFFFFFFFFFFFFFFFFFFFFFFFFFFFFFFFFFFFFFFFFFFFFFFFFF DUP3 SUB PUSH2 0x9A3 JUMPI PUSH2 0x9A2 PUSH2 0x8D4 JUMP JUMPDEST JUMPDEST PUSH1 0x1 DUP3 ADD SWAP1 POP SWAP2 SWAP1 POP JUMP JUMPDEST PUSH1 0x0 DUP2 MLOAD SWAP1 POP SWAP2 SWAP1 POP JUMP JUMPDEST PUSH1 0x0 DUP2 SWAP1 POP SWAP3 SWAP2 POP POP JUMP JUMPDEST PUSH1 0x0 JUMPDEST DUP4 DUP2 LT ISZERO PUSH2 0x9E2 JUMPI DUP1 DUP3 ADD MLOAD DUP2 DUP5 ADD MSTORE PUSH1 0x20 DUP2 ADD SWAP1 POP PUSH2 0x9C7 JUMP JUMPDEST PUSH1 0x0 DUP5 DUP5 ADD MSTORE POP POP POP POP JUMP JUMPDEST PUSH1 0x0 PUSH2 0x9F9 DUP3 PUSH2 0x9AE JUMP JUMPDEST PUSH2 0xA03 DUP2 DUP6 PUSH2 0x9B9 JUMP JUMPDEST SWAP4 POP PUSH2 0xA13 DUP2 DUP6 PUSH1 0x20 DUP7 ADD PUSH2 0x9C4 JUMP JUMPDEST DUP1 DUP5 ADD SWAP2 POP POP SWAP3 SWAP2 POP POP JUMP JUMPDEST PUSH1 0x0 PUSH2 0xA2B DUP3 DUP5 PUSH2 0x9EE JUMP JUMPDEST SWAP2 POP DUP2 SWAP1 POP SWAP3 SWAP2 POP POP JUMP JUMPDEST PUSH32 0x4E487B7100000000000000000000000000000000000000000000000000000000 PUSH1 0x0 MSTORE PUSH1 0x12 PUSH1 0x4 MSTORE PUSH1 0x24 PUSH1 0x0 REVERT JUMPDEST PUSH1 0x0 PUSH2 0xA70 DUP3 PUSH2 0x523 JUMP JUMPDEST SWAP2 POP PUSH2 0xA7B DUP4 PUSH2 0x523 JUMP JUMPDEST SWAP3 POP DUP3 PUSH2 0xA8B JUMPI PUSH2 0xA8A PUSH2 0xA36 JUMP JUMPDEST JUMPDEST DUP3 DUP3 MOD SWAP1 POP SWAP3 SWAP2 POP POP JUMP JUMPDEST PUSH32 0x4E487B7100000000000000000000000000000000000000000000000000000000 PUSH1 0x0 MSTORE PUSH1 0x22 PUSH1 0x4 MSTORE PUSH1 0x24 PUSH1 0x0 REVERT JUMPDEST PUSH1 0x0 PUSH1 0x2 DUP3 DIV SWAP1 POP PUSH1 0x1 DUP3 AND DUP1 PUSH2 0xADD JUMPI PUSH1 0x7F DUP3 AND SWAP2 POP JUMPDEST PUSH1 0x20 DUP3 LT DUP2 SUB PUSH2 0xAF0 JUMPI PUSH2 0xAEF PUSH2 0xA96 JUMP JUMPDEST JUMPDEST POP SWAP2 SWAP1 POP JUMP JUMPDEST PUSH1 0x0 DUP2 SWAP1 POP DUP2 PUSH1 0x0 MSTORE PUSH1 0x20 PUSH1 0x0 KECCAK256 SWAP1 POP SWAP2 SWAP1 POP JUMP JUMPDEST PUSH1 0x0 PUSH1 0x20 PUSH1 0x1F DUP4 ADD DIV SWAP1 POP SWAP2 SWAP1 POP JUMP JUMPDEST PUSH1 0x0 DUP3 DUP3 SHL SWAP1 POP SWAP3 SWAP2 POP POP JUMP JUMPDEST PUSH1 0x0 PUSH1 0x8 DUP4 MUL PUSH2 0xB58 PUSH32 0xFFFFFFFFFFFFFFFFFFFFFFFFFFFFFFFFFFFFFFFFFFFFFFFFFFFFFFFFFFFFFFFF DUP3 PUSH2 0xB1B JUMP JUMPDEST PUSH2 0xB62 DUP7 DUP4 PUSH2 0xB1B JUMP JUMPDEST SWAP6 POP DUP1 NOT DUP5 AND SWAP4 POP DUP1 DUP7 AND DUP5 OR SWAP3 POP POP POP SWAP4 SWAP3 POP POP POP JUMP JUMPDEST PUSH1 0x0 DUP2 SWAP1 POP SWAP2 SWAP1 POP JUMP JUMPDEST PUSH1 0x0 PUSH2 0xB9F PUSH2 0xB9A PUSH2 0xB95 DUP5 PUSH2 0x523 JUMP JUMPDEST PUSH2 0xB7A JUMP JUMPDEST PUSH2 0x523 JUMP JUMPDEST SWAP1 POP SWAP2 SWAP1 POP JUMP JUMPDEST PUSH1 0x0 DUP2 SWAP1 POP SWAP2 SWAP1 POP JUMP JUMPDEST PUSH2 0xBB9 DUP4 PUSH2 0xB84 JUMP JUMPDEST PUSH2 0xBCD PUSH2 0xBC5 DUP3 PUSH2 0xBA6 JUMP JUMPDEST DUP5 DUP5 SLOAD PUSH2 0xB28 JUMP JUMPDEST DUP3 SSTORE POP POP POP POP JUMP JUMPDEST PUSH1 0x0 SWAP1 JUMP JUMPDEST PUSH2 0xBE2 PUSH2 0xBD5 JUMP JUMPDEST PUSH2 0xBED DUP2 DUP5 DUP5 PUSH2 0xBB0 JUMP JUMPDEST POP POP POP JUMP JUMPDEST JUMPDEST DUP2 DUP2 LT ISZERO PUSH2 0xC11 JUMPI PUSH2 0xC06 PUSH1 0x0 DUP3 PUSH2 0xBDA JUMP JUMPDEST PUSH1 0x1 DUP2 ADD SWAP1 POP PUSH2 0xBF3 JUMP JUMPDEST POP POP JUMP JUMPDEST PUSH1 0x1F DUP3 GT ISZERO PUSH2 0xC56 JUMPI PUSH2 0xC27 DUP2 PUSH2 0xAF6 JUMP JUMPDEST PUSH2 0xC30 DUP5 PUSH2 0xB0B JUMP JUMPDEST DUP2 ADD PUSH1 0x20 DUP6 LT ISZERO PUSH2 0xC3F JUMPI DUP2 SWAP1 POP JUMPDEST PUSH2 0xC53 PUSH2 0xC4B DUP6 PUSH2 0xB0B JUMP JUMPDEST DUP4 ADD DUP3 PUSH2 0xBF2 JUMP JUMPDEST POP POP JUMPDEST POP POP POP JUMP JUMPDEST PUSH1 0x0 DUP3 DUP3 SHR SWAP1 POP SWAP3 SWAP2 POP POP JUMP JUMPDEST PUSH1 0x0 PUSH2 0xC79 PUSH1 0x0 NOT DUP5 PUSH1 0x8 MUL PUSH2 0xC5B JUMP JUMPDEST NOT DUP1 DUP4 AND SWAP2 POP POP SWAP3 SWAP2 POP POP JUMP JUMPDEST PUSH1 0x0 PUSH2 0xC92 DUP4 DUP4 PUSH2 0xC68 JUMP JUMPDEST SWAP2 POP DUP3 PUSH1 0x2 MUL DUP3 OR SWAP1 POP SWAP3 SWAP2 POP POP JUMP JUMPDEST PUSH2 0xCAB DUP3 PUSH2 0x9AE JUMP JUMPDEST PUSH8 0xFFFFFFFFFFFFFFFF DUP2 GT ISZERO PUSH2 0xCC4 JUMPI PUSH2 0xCC3 PUSH2 0x760 JUMP JUMPDEST JUMPDEST PUSH2 0xCCE DUP3 SLOAD PUSH2 0xAC5 JUMP JUMPDEST PUSH2 0xCD9 DUP3 DUP3 DUP6 PUSH2 0xC15 JUMP JUMPDEST PUSH1 0x0 PUSH1 0x20 SWAP1 POP PUSH1 0x1F DUP4 GT PUSH1 0x1 DUP2 EQ PUSH2 0xD0C JUMPI PUSH1 0x0 DUP5 ISZERO PUSH2 0xCFA JUMPI DUP3 DUP8 ADD MLOAD SWAP1 POP JUMPDEST PUSH2 0xD04 DUP6 DUP3 PUSH2 0xC86 JUMP JUMPDEST DUP7 SSTORE POP PUSH2 0xD6C JUMP JUMPDEST PUSH1 0x1F NOT DUP5 AND PUSH2 0xD1A DUP7 PUSH2 0xAF6 JUMP JUMPDEST PUSH1 0x0 JUMPDEST DUP3 DUP2 LT ISZERO PUSH2 0xD42 JUMPI DUP5 DUP10 ADD MLOAD DUP3 SSTORE PUSH1 0x1 DUP3 ADD SWAP2 POP PUSH1 0x20 DUP6 ADD SWAP5 POP PUSH1 0x20 DUP2 ADD SWAP1 POP PUSH2 0xD1D JUMP JUMPDEST DUP7 DUP4 LT ISZERO PUSH2 0xD5F JUMPI DUP5 DUP10 ADD MLOAD PUSH2 0xD5B PUSH1 0x1F DUP10 AND DUP3 PUSH2 0xC68 JUMP JUMPDEST DUP4 SSTORE POP JUMPDEST PUSH1 0x1 PUSH1 0x2 DUP9 MUL ADD DUP9 SSTORE POP POP POP JUMPDEST POP POP POP POP POP POP JUMP JUMPDEST PUSH1 0x0 PUSH2 0xD7F DUP3 PUSH2 0x523 JUMP JUMPDEST SWAP2 POP PUSH2 0xD8A DUP4 PUSH2 0x523 JUMP JUMPDEST SWAP3 POP DUP3 DUP3 SUB SWAP1 POP DUP2 DUP2 GT ISZERO PUSH2 0xDA2 JUMPI PUSH2 0xDA1 PUSH2 0x8D4 JUMP JUMPDEST JUMPDEST SWAP3 SWAP2 POP POP JUMP JUMPDEST PUSH1 0x0 DUP3 DUP3 MSTORE PUSH1 0x20 DUP3 ADD SWAP1 POP SWAP3 SWAP2 POP POP JUMP JUMPDEST PUSH1 0x0 PUSH2 0xDC4 DUP3 PUSH2 0x9AE JUMP JUMPDEST PUSH2 0xDCE DUP2 DUP6 PUSH2 0xDA8 JUMP JUMPDEST SWAP4 POP PUSH2 0xDDE DUP2 DUP6 PUSH1 0x20 DUP7 ADD PUSH2 0x9C4 JUMP JUMPDEST PUSH2 0xDE7 DUP2 PUSH2 0x74F JUMP JUMPDEST DUP5 ADD SWAP2 POP POP SWAP3 SWAP2 POP POP JUMP JUMPDEST PUSH1 0x0 PUSH1 0x60 DUP3 ADD SWAP1 POP PUSH2 0xE07 PUSH1 0x0 DUP4 ADD DUP7 PUSH2 0x71B JUMP JUMPDEST DUP2 DUP2 SUB PUSH1 0x20 DUP4 ADD MSTORE PUSH2 0xE19 DUP2 DUP6 PUSH2 0xDB9 JUMP JUMPDEST SWAP1 POP PUSH2 0xE28 PUSH1 0x40 DUP4 ADD DUP5 PUSH2 0x71B JUMP JUMPDEST SWAP5 SWAP4 POP POP POP POP JUMP INVALID LOG2 PUSH5 0x6970667358 0x22 SLT KECCAK256 GT JUMP MSIZE PUSH32 0xC42F61C7349AC068705A61405DB686D0339ECE84E8FE67100057DAA164736F6C PUSH4 0x43000812 STOP CALLER "
		},
		"gasEstimates": {
			"creation": {
				"codeDepositCost": "737200",
				"executionCost": "22879",
				"totalCost": "760079"
			},
			"external": {
				"Propiedad(uint256)": "infinite",
				"crearProductoAleatorio(string)": "infinite",
				"getProductosPorPropietario(address)": "infinite",
				"productoAPropietario(uint256)": "2861",
				"propietarioProductos(address)": "2858"
			},
			"internal": {
				"_crearProducto(string memory,uint256)": "infinite",
				"_generarIdAleatorio(string memory)": "infinite"
			}
		},
		"methodIdentifiers": {
			"Propiedad(uint256)": "655827e3",
			"crearProductoAleatorio(string)": "ae44a105",
			"getProductosPorPropietario(address)": "72380aea",
			"productoAPropietario(uint256)": "9baabf55",
			"propietarioProductos(address)": "adb4954e"
		}
	},
	"abi": [
		{
			"anonymous": false,
			"inputs": [
				{
					"indexed": false,
					"internalType": "uint256",
					"name": "ArrayProductoId",
					"type": "uint256"
				},
				{
					"indexed": false,
					"internalType": "string",
					"name": "nombre",
					"type": "string"
				},
				{
					"indexed": false,
					"internalType": "uint256",
					"name": "id",
					"type": "uint256"
				}
			],
			"name": "NuevoProducto",
			"type": "event"
		},
		{
			"inputs": [
				{
					"internalType": "uint256",
					"name": "idProducto",
					"type": "uint256"
				}
			],
			"name": "Propiedad",
			"outputs": [],
			"stateMutability": "nonpayable",
			"type": "function"
		},
		{
			"inputs": [
				{
					"internalType": "string",
					"name": "_nombre",
					"type": "string"
				}
			],
			"name": "crearProductoAleatorio",
			"outputs": [],
			"stateMutability": "nonpayable",
			"type": "function"
		},
		{
			"inputs": [
				{
					"internalType": "address",
					"name": "_propietario",
					"type": "address"
				}
			],
			"name": "getProductosPorPropietario",
			"outputs": [
				{
					"internalType": "uint256[]",
					"name": "",
					"type": "uint256[]"
				}
			],
			"stateMutability": "view",
			"type": "function"
		},
		{
			"inputs": [
				{
					"internalType": "uint256",
					"name": "",
					"type": "uint256"
				}
			],
			"name": "productoAPropietario",
			"outputs": [
				{
					"internalType": "address",
					"name": "",
					"type": "address"
				}
			],
			"stateMutability": "view",
			"type": "function"
		},
		{
			"inputs": [
				{
					"internalType": "address",
					"name": "",
					"type": "address"
				}
			],
			"name": "propietarioProductos",
			"outputs": [
				{
					"internalType": "uint256",
					"name": "",
					"type": "uint256"
				}
			],
			"stateMutability": "view",
			"type": "function"
		}
	]
}